{
  "contractName": "Election",
  "abi": [
    {
      "constant": true,
      "inputs": [],
      "name": "hour",
      "outputs": [
        {
          "name": "",
          "type": "uint256"
        }
      ],
      "payable": false,
      "stateMutability": "view",
      "type": "function",
      "signature": "0x23e5f1c5"
    },
    {
      "constant": true,
      "inputs": [],
      "name": "candidatesCount",
      "outputs": [
        {
          "name": "",
          "type": "uint256"
        }
      ],
      "payable": false,
      "stateMutability": "view",
      "type": "function",
      "signature": "0x2d35a8a2"
    },
    {
      "constant": true,
      "inputs": [
        {
          "name": "",
          "type": "uint256"
        }
      ],
      "name": "candidates",
      "outputs": [
        {
          "name": "id",
          "type": "uint256"
        },
        {
          "name": "name",
          "type": "bytes32"
        },
        {
          "name": "voteCount",
          "type": "uint256"
        }
      ],
      "payable": false,
      "stateMutability": "view",
      "type": "function",
      "signature": "0x3477ee2e"
    },
    {
      "constant": true,
      "inputs": [
        {
          "name": "",
          "type": "address"
        }
      ],
      "name": "voters",
      "outputs": [
        {
          "name": "",
          "type": "bool"
        }
      ],
      "payable": false,
      "stateMutability": "view",
      "type": "function",
      "signature": "0xa3ec138d"
    },
    {
      "constant": true,
      "inputs": [],
      "name": "electionStarted",
      "outputs": [
        {
          "name": "",
          "type": "bool"
        }
      ],
      "payable": false,
      "stateMutability": "view",
      "type": "function",
      "signature": "0xd5346da1"
    },
    {
      "constant": true,
      "inputs": [],
      "name": "min",
      "outputs": [
        {
          "name": "",
          "type": "uint256"
        }
      ],
      "payable": false,
      "stateMutability": "view",
      "type": "function",
      "signature": "0xf8897945"
    },
    {
      "inputs": [],
      "payable": false,
      "stateMutability": "nonpayable",
      "type": "constructor",
      "signature": "constructor"
    },
    {
      "constant": false,
      "inputs": [
        {
          "name": "_name",
          "type": "bytes32"
        }
      ],
      "name": "addCandidate",
      "outputs": [],
      "payable": false,
      "stateMutability": "nonpayable",
      "type": "function",
      "signature": "0x230d6ed8"
    },
    {
      "constant": false,
      "inputs": [
        {
          "name": "candidateId",
          "type": "uint256"
        }
      ],
      "name": "vote",
      "outputs": [],
      "payable": false,
      "stateMutability": "nonpayable",
      "type": "function",
      "signature": "0x0121b93f"
    },
    {
      "constant": true,
      "inputs": [
        {
          "name": "candidate",
          "type": "bytes32"
        }
      ],
      "name": "isNewEntry",
      "outputs": [
        {
          "name": "",
          "type": "bool"
        }
      ],
      "payable": false,
      "stateMutability": "view",
      "type": "function",
      "signature": "0xc408f56b"
    },
    {
      "constant": false,
      "inputs": [],
      "name": "startVote",
      "outputs": [],
      "payable": false,
      "stateMutability": "nonpayable",
      "type": "function",
      "signature": "0x4c0a6af0"
    },
    {
      "constant": false,
      "inputs": [
        {
          "name": "a",
          "type": "uint256"
        },
        {
          "name": "b",
          "type": "uint256"
        }
      ],
      "name": "setTimer",
      "outputs": [],
      "payable": false,
      "stateMutability": "nonpayable",
      "type": "function",
      "signature": "0xdf034001"
    },
    {
      "constant": false,
      "inputs": [],
      "name": "gethighest",
      "outputs": [
        {
          "name": "",
          "type": "uint256"
        }
      ],
      "payable": false,
      "stateMutability": "nonpayable",
      "type": "function",
      "signature": "0xe7eead26"
    }
  ],
  "bytecode": "0x608060405234801561001057600080fd5b5060008060006101000a81548160ff0219169083151502179055506108408061003a6000396000f3fe6080604052600436106100ba576000357c0100000000000000000000000000000000000000000000000000000000900463ffffffff1680630121b93f146100bf578063230d6ed8146100fa57806323e5f1c5146101355780632d35a8a2146101605780633477ee2e1461018b5780634c0a6af0146101e8578063a3ec138d146101ff578063c408f56b14610268578063d5346da1146102bb578063df034001146102ea578063e7eead261461032f578063f88979451461035a575b600080fd5b3480156100cb57600080fd5b506100f8600480360360208110156100e257600080fd5b8101908080359060200190929190505050610385565b005b34801561010657600080fd5b506101336004803603602081101561011d57600080fd5b810190808035906020019092919050505061047b565b005b34801561014157600080fd5b5061014a610562565b6040518082815260200191505060405180910390f35b34801561016c57600080fd5b50610175610568565b6040518082815260200191505060405180910390f35b34801561019757600080fd5b506101c4600480360360208110156101ae57600080fd5b810190808035906020019092919050505061056e565b60405180848152602001838152602001828152602001935050505060405180910390f35b3480156101f457600080fd5b506101fd610598565b005b34801561020b57600080fd5b5061024e6004803603602081101561022257600080fd5b81019080803573ffffffffffffffffffffffffffffffffffffffff169060200190929190505050610602565b604051808215151515815260200191505060405180910390f35b34801561027457600080fd5b506102a16004803603602081101561028b57600080fd5b8101908080359060200190929190505050610622565b604051808215151515815260200191505060405180910390f35b3480156102c757600080fd5b506102d0610675565b604051808215151515815260200191505060405180910390f35b3480156102f657600080fd5b5061032d6004803603604081101561030d57600080fd5b810190808035906020019092919080359060200190929190505050610687565b005b34801561033b57600080fd5b50610344610702565b6040518082815260200191505060405180910390f35b34801561036657600080fd5b5061036f6107e9565b6040518082815260200191505060405180910390f35b600160003373ffffffffffffffffffffffffffffffffffffffff1673ffffffffffffffffffffffffffffffffffffffff16815260200190815260200160002060009054906101000a900460ff161515156103de57600080fd5b6000811180156103f057506003548111155b15156103fb57600080fd5b600260008281526020019081526020016000206002016000815480929190600101919050555060018060003373ffffffffffffffffffffffffffffffffffffffff1673ffffffffffffffffffffffffffffffffffffffff16815260200190815260200160002060006101000a81548160ff02191690831515021790555050565b737aba4a306f65ed1269ec888d1cdf4a85c9b2652b73ffffffffffffffffffffffffffffffffffffffff163373ffffffffffffffffffffffffffffffffffffffff161415156104c957600080fd5b6000809054906101000a900460ff161515156104e457600080fd5b6104ed81610622565b15156104f857600080fd5b6003600081548092919060010191905055506060604051908101604052806003548152602001828152602001600081525060026000600354815260200190815260200160002060008201518160000155602082015181600101556040820151816002015590505050565b60045481565b60035481565b60026020528060005260406000206000915090508060000154908060010154908060020154905083565b737aba4a306f65ed1269ec888d1cdf4a85c9b2652b73ffffffffffffffffffffffffffffffffffffffff163373ffffffffffffffffffffffffffffffffffffffff161415156105e657600080fd5b60016000806101000a81548160ff021916908315150217905550565b60016020528060005260406000206000915054906101000a900460ff1681565b600080600190505b6003548111151561066a57826002600083815260200190815260200160002060010154141561065d576000915050610670565b808060010191505061062a565b50600190505b919050565b6000809054906101000a900460ff1681565b737aba4a306f65ed1269ec888d1cdf4a85c9b2652b73ffffffffffffffffffffffffffffffffffffffff163373ffffffffffffffffffffffffffffffffffffffff161415156106d557600080fd5b6000809054906101000a900460ff161515156106f057600080fd5b81600481905550806005819055505050565b60008060035411151561071457600080fd5b61071c6107ef565b600260006001815260200190815260200160002060606040519081016040529081600082015481526020016001820154815260200160028201548152505090506000600290505b600354811115156107dd578160400151600260008381526020019081526020016000206002015411156107d0576002600082815260200190815260200160002060606040519081016040529081600082015481526020016001820154815260200160028201548152505091505b8080600101915050610763565b50806000015191505090565b60055481565b606060405190810160405280600081526020016000801916815260200160008152509056fea165627a7a72305820abf3cd873b8db96d0640d44a442d4b5b235f69015cacded1713c393309f2c8ad0029",
  "source": "pragma solidity ^0.5.0;\r\n/**\r\n * The Election contract does this and that...\r\n */\r\ncontract Election {\r\n\t//model\r\n\t//store\r\n\t//fetch\r\n\tstruct Candidate {\r\n\t\tuint id;\r\n\t\tbytes32 name;\r\n\t\tuint voteCount;\t\r\n\t}\r\n\tbool public electionStarted;\r\n\t\r\n\tmapping (address => bool) public voters;\r\n\r\n\t\r\n\tmapping (uint => Candidate) public candidates;\r\n\tuint public candidatesCount;\r\n\tuint public hour;\r\n\tuint public min;\r\n\tconstructor () public {\r\n\t\telectionStarted = false;\r\n\t\t/*candidateList = _candidateNames;\r\n\t\tfor(uint i =0;i<candidateList.length;i++){\r\n\t\t\taddCandidate(candidateList[i]);*/\r\n\t\t//}\r\n\t\t//addCandidate(candidate);\r\n\t}\r\n\r\n\tfunction addCandidate (bytes32 _name) public {\r\n\r\n\t\trequire (msg.sender == address(0x007aba4a306f65ed1269ec888d1cdf4a85c9b2652b));\r\n\t\trequire (!electionStarted);\r\n\t\trequire (isNewEntry(_name));\r\n\t\t\r\n\t\tcandidatesCount ++;\r\n\t\tcandidates[candidatesCount] = Candidate(candidatesCount,_name,0);\r\n\t}\r\n\tfunction vote (uint candidateId) public {\r\n\r\n\t\trequire (!voters[msg.sender]);\r\n\r\n\t\trequire (candidateId>0&&candidateId<=candidatesCount);\r\n\t\t\r\n\t\t\r\n\t\tcandidates[candidateId].voteCount++;\r\n\t\tvoters[msg.sender] = true;\r\n\t}\r\n\t\r\n\tfunction isNewEntry(bytes32 candidate) view public returns (bool) {\r\n    for(uint i = 1; i <= candidatesCount; i++) {\r\n        if (candidates[i].name == candidate) {\r\n            return false;\r\n        }\r\n    }\r\n    return true;\r\n  }\r\n\r\n  function startVote () public {\r\n\r\n  \trequire (msg.sender == address(0x007aba4a306f65ed1269ec888d1cdf4a85c9b2652b));\r\n  \telectionStarted =true;\r\n  }\r\n\r\n  function setTimer (uint a , uint b) public {\r\n  \trequire (msg.sender == address(0x007aba4a306f65ed1269ec888d1cdf4a85c9b2652b));\r\n\r\n  \trequire (!electionStarted);\r\n  \t\r\n  \thour = a;\r\n  \tmin = b;\r\n  }\r\n\r\n  function gethighest () public returns(uint) {\r\n\r\n  \trequire (candidatesCount>0);\r\n  \tCandidate memory max=candidates[1];\r\n  \tfor (uint i =2;i<=candidatesCount;i++){\r\n  \t\tif(candidates[i].voteCount>max.voteCount){\r\n  \t\t\tmax =candidates[i];\r\n  \t\t}\r\n  \t}\r\n  \treturn max.id;\r\n  }\r\n}\r\n\r\n",
  "sourcePath": "C:/Users/uk807/Documents/Concepts/Blockchain/Election/contracts/Election.sol",
  "compiler": {
    "name": "solc",
    "version": "0.5.0+commit.1d4f565a.Emscripten.clang"
  },
  "schemaVersion": "3.0.0",
  "updatedAt": "2018-12-26T22:52:25.556Z",
  "devdoc": {
    "methods": {}
  },
  "userdoc": {
    "methods": {},
    "notice": "The Election contract does this and that...\r"
  }
}