{
  "contractName": "Election",
  "abi": [
    {
      "constant": true,
      "inputs": [],
      "name": "hour",
      "outputs": [
        {
          "name": "",
          "type": "uint256"
        }
      ],
      "payable": false,
      "stateMutability": "view",
      "type": "function"
    },
    {
      "constant": true,
      "inputs": [],
      "name": "candidatesCount",
      "outputs": [
        {
          "name": "",
          "type": "uint256"
        }
      ],
      "payable": false,
      "stateMutability": "view",
      "type": "function"
    },
    {
      "constant": true,
      "inputs": [
        {
          "name": "",
          "type": "uint256"
        }
      ],
      "name": "candidates",
      "outputs": [
        {
          "name": "id",
          "type": "uint256"
        },
        {
          "name": "name",
          "type": "bytes32"
        },
        {
          "name": "voteCount",
          "type": "uint256"
        }
      ],
      "payable": false,
      "stateMutability": "view",
      "type": "function"
    },
    {
      "constant": true,
      "inputs": [
        {
          "name": "",
          "type": "address"
        }
      ],
      "name": "voters",
      "outputs": [
        {
          "name": "",
          "type": "bool"
        }
      ],
      "payable": false,
      "stateMutability": "view",
      "type": "function"
    },
    {
      "constant": true,
      "inputs": [],
      "name": "electionStarted",
      "outputs": [
        {
          "name": "",
          "type": "bool"
        }
      ],
      "payable": false,
      "stateMutability": "view",
      "type": "function"
    },
    {
      "constant": true,
      "inputs": [],
      "name": "min",
      "outputs": [
        {
          "name": "",
          "type": "uint256"
        }
      ],
      "payable": false,
      "stateMutability": "view",
      "type": "function"
    },
    {
      "inputs": [],
      "payable": false,
      "stateMutability": "nonpayable",
      "type": "constructor"
    },
    {
      "constant": false,
      "inputs": [
        {
          "name": "_name",
          "type": "bytes32"
        }
      ],
      "name": "addCandidate",
      "outputs": [],
      "payable": false,
      "stateMutability": "nonpayable",
      "type": "function"
    },
    {
      "constant": false,
      "inputs": [
        {
          "name": "candidateId",
          "type": "uint256"
        }
      ],
      "name": "vote",
      "outputs": [],
      "payable": false,
      "stateMutability": "nonpayable",
      "type": "function"
    },
    {
      "constant": true,
      "inputs": [
        {
          "name": "candidate",
          "type": "bytes32"
        }
      ],
      "name": "isNewEntry",
      "outputs": [
        {
          "name": "",
          "type": "bool"
        }
      ],
      "payable": false,
      "stateMutability": "view",
      "type": "function"
    },
    {
      "constant": false,
      "inputs": [],
      "name": "startVote",
      "outputs": [],
      "payable": false,
      "stateMutability": "nonpayable",
      "type": "function"
    },
    {
      "constant": false,
      "inputs": [
        {
          "name": "a",
          "type": "uint256"
        },
        {
          "name": "b",
          "type": "uint256"
        }
      ],
      "name": "setTimer",
      "outputs": [],
      "payable": false,
      "stateMutability": "nonpayable",
      "type": "function"
    },
    {
      "constant": false,
      "inputs": [],
      "name": "gethighest",
      "outputs": [
        {
          "name": "",
          "type": "uint256"
        }
      ],
      "payable": false,
      "stateMutability": "nonpayable",
      "type": "function"
    }
  ],
  "bytecode": "0x608060405234801561001057600080fd5b5060008060006101000a81548160ff02191690831515021790555061074b8061003a6000396000f3006080604052600436106100ba576000357c0100000000000000000000000000000000000000000000000000000000900463ffffffff1680630121b93f146100bf578063230d6ed8146100ec57806323e5f1c51461011d5780632d35a8a2146101485780633477ee2e146101735780634c0a6af0146101ca578063a3ec138d146101e1578063c408f56b1461023c578063d5346da114610285578063df034001146102b4578063e7eead26146102eb578063f889794514610316575b600080fd5b3480156100cb57600080fd5b506100ea60048036038101908080359060200190929190505050610341565b005b3480156100f857600080fd5b5061011b6004803603810190808035600019169060200190929190505050610437565b005b34801561012957600080fd5b50610132610512565b6040518082815260200191505060405180910390f35b34801561015457600080fd5b5061015d610518565b6040518082815260200191505060405180910390f35b34801561017f57600080fd5b5061019e6004803603810190808035906020019092919050505061051e565b604051808481526020018360001916600019168152602001828152602001935050505060405180910390f35b3480156101d657600080fd5b506101df610548565b005b3480156101ed57600080fd5b50610222600480360381019080803573ffffffffffffffffffffffffffffffffffffffff16906020019092919050505061059c565b604051808215151515815260200191505060405180910390f35b34801561024857600080fd5b5061026b60048036038101908080356000191690602001909291905050506105bc565b604051808215151515815260200191505060405180910390f35b34801561029157600080fd5b5061029a610616565b604051808215151515815260200191505060405180910390f35b3480156102c057600080fd5b506102e96004803603810190808035906020019092919080359060200190929190505050610628565b005b3480156102f757600080fd5b5061030061068d565b6040518082815260200191505060405180910390f35b34801561032257600080fd5b5061032b610719565b6040518082815260200191505060405180910390f35b600160003373ffffffffffffffffffffffffffffffffffffffff1673ffffffffffffffffffffffffffffffffffffffff16815260200190815260200160002060009054906101000a900460ff1615151561039a57600080fd5b6000811180156103ac57506003548111155b15156103b757600080fd5b600260008281526020019081526020016000206002016000815480929190600101919050555060018060003373ffffffffffffffffffffffffffffffffffffffff1673ffffffffffffffffffffffffffffffffffffffff16815260200190815260200160002060006101000a81548160ff02191690831515021790555050565b737aba4a306f65ed1269ec888d1cdf4a85c9b2652b3373ffffffffffffffffffffffffffffffffffffffff1614151561046f57600080fd5b6000809054906101000a900460ff1615151561048a57600080fd5b610493816105bc565b151561049e57600080fd5b600360008154809291906001019190505550606060405190810160405280600354815260200182600019168152602001600081525060026000600354815260200190815260200160002060008201518160000155602082015181600101906000191690556040820151816002015590505050565b60045481565b60035481565b60026020528060005260406000206000915090508060000154908060010154908060020154905083565b737aba4a306f65ed1269ec888d1cdf4a85c9b2652b3373ffffffffffffffffffffffffffffffffffffffff1614151561058057600080fd5b60016000806101000a81548160ff021916908315150217905550565b60016020528060005260406000206000915054906101000a900460ff1681565b600080600190505b6003548111151561060b57826000191660026000838152602001908152602001600020600101546000191614156105fe5760009150610610565b80806001019150506105c4565b600191505b50919050565b6000809054906101000a900460ff1681565b737aba4a306f65ed1269ec888d1cdf4a85c9b2652b3373ffffffffffffffffffffffffffffffffffffffff1614151561066057600080fd5b6000809054906101000a900460ff1615151561067b57600080fd5b81600481905550806005819055505050565b6000806000806003541115156106a257600080fd5b60026000600181526020019081526020016000209150600290505b6003548111151561070d57816002015460026000838152602001908152602001600020600201541115610700576002600082815260200190815260200160002091505b80806001019150506106bd565b81600001549250505090565b600554815600a165627a7a72305820a6110337557c9d72b8c94c6da5ee429763b82a30fa8ac6d9e06bdf65d64558130029",
  "source": "pragma solidity ^0.4.24;\r\n/**\r\n * The Election contract does this and that...\r\n */\r\ncontract Election {\r\n\t//model\r\n\t//store\r\n\t//fetch\r\n\tstruct Candidate {\r\n\t\tuint id;\r\n\t\tbytes32 name;\r\n\t\tuint voteCount;\t\r\n\t}\r\n\tbool public electionStarted;\r\n\t\r\n\tmapping (address => bool) public voters;\r\n\r\n\t\r\n\tmapping (uint => Candidate) public candidates;\r\n\tuint public candidatesCount;\r\n\tuint public hour;\r\n\tuint public min;\r\n\tconstructor () public {\r\n\t\telectionStarted = false;\r\n\t\t/*candidateList = _candidateNames;\r\n\t\tfor(uint i =0;i<candidateList.length;i++){\r\n\t\t\taddCandidate(candidateList[i]);*/\r\n\t\t//}\r\n\t\t//addCandidate(candidate);\r\n\t}\r\n\r\n\tfunction addCandidate (bytes32 _name) public {\r\n\r\n\t\trequire (msg.sender == 0x7aba4a306f65ed1269ec888d1cdf4a85c9b2652b);\r\n\t\trequire (!electionStarted);\r\n\t\trequire (isNewEntry(_name));\r\n\t\t\r\n\t\tcandidatesCount ++;\r\n\t\tcandidates[candidatesCount] = Candidate(candidatesCount,_name,0);\r\n\t}\r\n\tfunction vote (uint candidateId) public {\r\n\r\n\t\trequire (!voters[msg.sender]);\r\n\r\n\t\trequire (candidateId>0&&candidateId<=candidatesCount);\r\n\t\t\r\n\t\t\r\n\t\tcandidates[candidateId].voteCount++;\r\n\t\tvoters[msg.sender] = true;\r\n\t}\r\n\t\r\n\tfunction isNewEntry(bytes32 candidate) view public returns (bool) {\r\n    for(uint i = 1; i <= candidatesCount; i++) {\r\n        if (candidates[i].name == candidate) {\r\n            return false;\r\n        }\r\n    }\r\n    return true;\r\n  }\r\n\r\n  function startVote () public {\r\n\r\n  \trequire (msg.sender == 0x7aba4a306f65ed1269ec888d1cdf4a85c9b2652b);\r\n  \telectionStarted =true;\r\n  }\r\n\r\n  function setTimer (uint a , uint b) public {\r\n  \trequire (msg.sender == 0x7aba4a306f65ed1269ec888d1cdf4a85c9b2652b);\r\n\r\n  \trequire (!electionStarted);\r\n  \t\r\n  \thour = a;\r\n  \tmin = b;\r\n  }\r\n\r\n  function gethighest () public returns(uint) {\r\n\r\n  \trequire (candidatesCount>0);\r\n  \tCandidate max=candidates[1];\r\n  \tfor (uint i =2;i<=candidatesCount;i++){\r\n  \t\tif(candidates[i].voteCount>max.voteCount){\r\n  \t\t\tmax =candidates[i];\r\n  \t\t}\r\n  \t}\r\n  \treturn max.id;\r\n  }\r\n}\r\n\r\n",
  "sourcePath": "C:\\Users\\uk807\\Documents\\Concepts\\Blockchain\\e2\\contracts\\Election.sol",
  "compiler": {
    "name": "solc",
    "version": "0.4.24+commit.e67f0147.Emscripten.clang"
  },
  "schemaVersion": "2.0.1",
  "updatedAt": "2018-12-23T07:39:11.502Z"
}