{
  "contractName": "Election",
  "abi": [
    {
      "constant": true,
      "inputs": [],
      "name": "time",
      "outputs": [
        {
          "name": "",
          "type": "string"
        }
      ],
      "payable": false,
      "stateMutability": "view",
      "type": "function"
    },
    {
      "constant": true,
      "inputs": [],
      "name": "candidatesCount",
      "outputs": [
        {
          "name": "",
          "type": "uint256"
        }
      ],
      "payable": false,
      "stateMutability": "view",
      "type": "function"
    },
    {
      "constant": true,
      "inputs": [
        {
          "name": "",
          "type": "uint256"
        }
      ],
      "name": "candidates",
      "outputs": [
        {
          "name": "id",
          "type": "uint256"
        },
        {
          "name": "name",
          "type": "bytes32"
        },
        {
          "name": "voteCount",
          "type": "uint256"
        }
      ],
      "payable": false,
      "stateMutability": "view",
      "type": "function"
    },
    {
      "constant": true,
      "inputs": [
        {
          "name": "",
          "type": "address"
        }
      ],
      "name": "voters",
      "outputs": [
        {
          "name": "",
          "type": "bool"
        }
      ],
      "payable": false,
      "stateMutability": "view",
      "type": "function"
    },
    {
      "constant": true,
      "inputs": [],
      "name": "electionStarted",
      "outputs": [
        {
          "name": "",
          "type": "bool"
        }
      ],
      "payable": false,
      "stateMutability": "view",
      "type": "function"
    },
    {
      "inputs": [],
      "payable": false,
      "stateMutability": "nonpayable",
      "type": "constructor"
    },
    {
      "constant": false,
      "inputs": [
        {
          "name": "_name",
          "type": "bytes32"
        }
      ],
      "name": "addCandidate",
      "outputs": [],
      "payable": false,
      "stateMutability": "nonpayable",
      "type": "function"
    },
    {
      "constant": false,
      "inputs": [
        {
          "name": "candidateId",
          "type": "uint256"
        }
      ],
      "name": "vote",
      "outputs": [],
      "payable": false,
      "stateMutability": "nonpayable",
      "type": "function"
    },
    {
      "constant": true,
      "inputs": [
        {
          "name": "candidate",
          "type": "bytes32"
        }
      ],
      "name": "isNewEntry",
      "outputs": [
        {
          "name": "",
          "type": "bool"
        }
      ],
      "payable": false,
      "stateMutability": "view",
      "type": "function"
    },
    {
      "constant": false,
      "inputs": [],
      "name": "startVote",
      "outputs": [],
      "payable": false,
      "stateMutability": "nonpayable",
      "type": "function"
    },
    {
      "constant": false,
      "inputs": [
        {
          "name": "a",
          "type": "string"
        }
      ],
      "name": "setTimer",
      "outputs": [],
      "payable": false,
      "stateMutability": "nonpayable",
      "type": "function"
    },
    {
      "constant": true,
      "inputs": [],
      "name": "getTimer",
      "outputs": [
        {
          "name": "",
          "type": "string"
        }
      ],
      "payable": false,
      "stateMutability": "view",
      "type": "function"
    },
    {
      "constant": true,
      "inputs": [],
      "name": "gethighest",
      "outputs": [
        {
          "name": "",
          "type": "uint256"
        }
      ],
      "payable": false,
      "stateMutability": "view",
      "type": "function"
    }
  ],
  "bytecode": "0x608060405234801561001057600080fd5b5060008060006101000a81548160ff021916908315150217905550610de18061003a6000396000f3fe608060405234801561001057600080fd5b50600436106100b45760003560e01c8063a3ec138d11610071578063a3ec138d14610210578063a7203d341461026c578063c408f56b146102ef578063d5346da114610335578063e7eead2614610357578063f6b47e7014610375576100b4565b80630121b93f146100b957806316ada547146100e7578063230d6ed81461016a5780632d35a8a2146101985780633477ee2e146101b65780634c0a6af014610206575b600080fd5b6100e5600480360360208110156100cf57600080fd5b8101908080359060200190929190505050610430565b005b6100ef6105f4565b6040518080602001828103825283818151815260200191508051906020019080838360005b8381101561012f578082015181840152602081019050610114565b50505050905090810190601f16801561015c5780820380516001836020036101000a031916815260200191505b509250505060405180910390f35b6101966004803603602081101561018057600080fd5b8101908080359060200190929190505050610692565b005b6101a06108ad565b6040518082815260200191505060405180910390f35b6101e2600480360360208110156101cc57600080fd5b81019080803590602001909291905050506108b3565b60405180848152602001838152602001828152602001935050505060405180910390f35b61020e6108dd565b005b6102526004803603602081101561022657600080fd5b81019080803573ffffffffffffffffffffffffffffffffffffffff1690602001909291905050506109ae565b604051808215151515815260200191505060405180910390f35b6102746109ce565b6040518080602001828103825283818151815260200191508051906020019080838360005b838110156102b4578082015181840152602081019050610299565b50505050905090810190601f1680156102e15780820380516001836020036101000a031916815260200191505b509250505060405180910390f35b61031b6004803603602081101561030557600080fd5b8101908080359060200190929190505050610a70565b604051808215151515815260200191505060405180910390f35b61033d610ac1565b604051808215151515815260200191505060405180910390f35b61035f610ad3565b6040518082815260200191505060405180910390f35b61042e6004803603602081101561038b57600080fd5b81019080803590602001906401000000008111156103a857600080fd5b8201836020820111156103ba57600080fd5b803590602001918460018302840111640100000000831117156103dc57600080fd5b91908080601f016020809104026020016040519081016040528093929190818152602001838380828437600081840152601f19601f820116905080830192505050505050509192919290505050610c1d565b005b600160003373ffffffffffffffffffffffffffffffffffffffff1673ffffffffffffffffffffffffffffffffffffffff16815260200190815260200160002060009054906101000a900460ff16156104f0576040517f08c379a000000000000000000000000000000000000000000000000000000000815260040180806020018281038252600d8152602001807f416c726561647920766f7465640000000000000000000000000000000000000081525060200191505060405180910390fd5b60008111801561050257506003548111155b610574576040517f08c379a00000000000000000000000000000000000000000000000000000000081526004018080602001828103825260148152602001807f496e76616c69642063616e64696461746520494400000000000000000000000081525060200191505060405180910390fd5b600260008281526020019081526020016000206002016000815480929190600101919050555060018060003373ffffffffffffffffffffffffffffffffffffffff1673ffffffffffffffffffffffffffffffffffffffff16815260200190815260200160002060006101000a81548160ff02191690831515021790555050565b60048054600181600116156101000203166002900480601f01602080910402602001604051908101604052809291908181526020018280546001816001161561010002031660029004801561068a5780601f1061065f5761010080835404028352916020019161068a565b820191906000526020600020905b81548152906001019060200180831161066d57829003601f168201915b505050505081565b7338b9d8ee6ba24c2d2a07cb8395478e93f086f9b573ffffffffffffffffffffffffffffffffffffffff163373ffffffffffffffffffffffffffffffffffffffff1614610747576040517f08c379a00000000000000000000000000000000000000000000000000000000081526004018080602001828103825260158152602001807f53656e646572206e6f7420617574686f7269736564000000000000000000000081525060200191505060405180910390fd5b6000809054906101000a900460ff16156107c9576040517f08c379a00000000000000000000000000000000000000000000000000000000081526004018080602001828103825260148152602001807f456c656374696f6e20697320676f696e67206f6e00000000000000000000000081525060200191505060405180910390fd5b6107d281610a70565b610844576040517f08c379a000000000000000000000000000000000000000000000000000000000815260040180806020018281038252600e8152602001807f416c72656164792065786973747300000000000000000000000000000000000081525060200191505060405180910390fd5b60036000815480929190600101919050555060405180606001604052806003548152602001828152602001600081525060026000600354815260200190815260200160002060008201518160000155602082015181600101556040820151816002015590505050565b60035481565b60026020528060005260406000206000915090508060000154908060010154908060020154905083565b7338b9d8ee6ba24c2d2a07cb8395478e93f086f9b573ffffffffffffffffffffffffffffffffffffffff163373ffffffffffffffffffffffffffffffffffffffff1614610992576040517f08c379a000000000000000000000000000000000000000000000000000000000815260040180806020018281038252600e8152602001807f4e6f7420617574686f72697a656400000000000000000000000000000000000081525060200191505060405180910390fd5b60016000806101000a81548160ff021916908315150217905550565b60016020528060005260406000206000915054906101000a900460ff1681565b606060048054600181600116156101000203166002900480601f016020809104026020016040519081016040528092919081815260200182805460018160011615610100020316600290048015610a665780601f10610a3b57610100808354040283529160200191610a66565b820191906000526020600020905b815481529060010190602001808311610a4957829003601f168201915b5050505050905090565b600080600190505b6003548111610ab6578260026000838152602001908152602001600020600101541415610aa9576000915050610abc565b8080600101915050610a78565b50600190505b919050565b6000809054906101000a900460ff1681565b60008060035411610b4c576040517f08c379a00000000000000000000000000000000000000000000000000000000081526004018080602001828103825260118152602001807f696e76616c69642063616e64696461746500000000000000000000000000000081525060200191505060405180910390fd5b610b54610cec565b6002600060018152602001908152602001600020604051806060016040529081600082015481526020016001820154815260200160028201548152505090506000600290505b6003548111610c1157816040015160026000838152602001908152602001600020600201541115610c045760026000828152602001908152602001600020604051806060016040529081600082015481526020016001820154815260200160028201548152505091505b8080600101915050610b9a565b50806000015191505090565b7338b9d8ee6ba24c2d2a07cb8395478e93f086f9b573ffffffffffffffffffffffffffffffffffffffff163373ffffffffffffffffffffffffffffffffffffffff1614610cd2576040517f08c379a000000000000000000000000000000000000000000000000000000000815260040180806020018281038252600e8152602001807f4e6f7420617574686f72697a656400000000000000000000000000000000000081525060200191505060405180910390fd5b8060049080519060200190610ce8929190610d10565b5050565b60405180606001604052806000815260200160008019168152602001600081525090565b828054600181600116156101000203166002900490600052602060002090601f016020900481019282601f10610d5157805160ff1916838001178555610d7f565b82800160010185558215610d7f579182015b82811115610d7e578251825591602001919060010190610d63565b5b509050610d8c9190610d90565b5090565b610db291905b80821115610dae576000816000905550600101610d96565b5090565b9056fea165627a7a723058205c94623bcd37f0a54392a24d614684933bc9778bf7105eb94ed23834b1a87b340029",
  "source": "pragma solidity ^0.5.0;\r\n/**\r\n * The Election contract does this and that...\r\n */\r\ncontract Election {\r\n\t//model\r\n\t//store\r\n\t//fetch\r\n\tstruct Candidate {\r\n\t\tuint id;\r\n\t\tbytes32 name;\r\n\t\tuint voteCount;\r\n\t}\r\n\tbool public electionStarted;\r\n\tmapping (address => bool) public voters;\r\n\tmapping (uint => Candidate) public candidates;\r\n\tuint public candidatesCount;\r\n\tstring public time;\r\n\t// uint public min;\r\n\tconstructor () public {\r\n\t\telectionStarted = false;\r\n\t\t/*candidateList = _candidateNames;\r\n\t\tfor(uint i =0;i<candidateList.length;i++){\r\n\t\t\taddCandidate(candidateList[i]);*/\r\n\t\t//}\r\n\t\t//addCandidate(candidate);\r\n\t}\r\n\r\n\tfunction addCandidate (bytes32 _name) public {\r\n\r\n\t\trequire (msg.sender == address(0x0038b9D8EE6ba24c2D2a07cb8395478E93F086F9B5),\r\n\t\t\"Sender not authorised\");\r\n\t\trequire (!electionStarted,\"Election is going on\");\r\n\t\trequire (isNewEntry(_name),\"Already exists\");\r\n\t\tcandidatesCount ++;\r\n\t\tcandidates[candidatesCount] = Candidate(candidatesCount,_name,0);\r\n\t}\r\n\tfunction vote (uint candidateId) public {\r\n\r\n\t\trequire (!voters[msg.sender],\"Already voted\");\r\n\r\n\t\trequire (candidateId>0&&candidateId<=candidatesCount,\"Invalid candidate ID\");\r\n\t\tcandidates[candidateId].voteCount++;\r\n\t\tvoters[msg.sender] = true;\r\n\t}\r\n\tfunction isNewEntry(bytes32 candidate) public view  returns (bool) {\r\n    for(uint i = 1; i <= candidatesCount; i++) {\r\n        if (candidates[i].name == candidate) {\r\n            return false;\r\n        }\r\n    }\r\n    return true;\r\n  }\r\n\r\n  function startVote () public {\r\n\r\n  \trequire (msg.sender == address(0x0038b9D8EE6ba24c2D2a07cb8395478E93F086F9B5),\"Not authorized\");\r\n\t  electionStarted = true;\r\n  }\r\n\r\n  function setTimer (string memory a) public {\r\n  \trequire (msg.sender == address(0x0038b9d8ee6ba24c2d2a07cb8395478e93f086f9b5),\"Not authorized\");\r\n\t  time = a;\r\n  }\r\n  function getTimer () public view returns(string memory) {\r\n\t  return time;\r\n  }\r\n  function gethighest () public view returns(uint) {\r\n\r\n  \trequire (candidatesCount>0,\"invalid candidate\");\r\n\t  Candidate memory max = candidates[1];\r\n  \tfor (uint i = 2;i<=candidatesCount;i++){\r\n  \t\tif(candidates[i].voteCount>max.voteCount){\r\n  \t\t\tmax = candidates[i];\r\n  \t\t}\r\n  \t}\r\n  \treturn max.id;\r\n  }\r\n}\r\n\r\n",
  "sourcePath": "C:/Users/uk807/Documents/Election/contracts/Election.sol",
  "compiler": {
    "name": "solc",
    "version": "0.5.8+commit.23d335f2.Emscripten.clang"
  },
  "schemaVersion": "3.0.11",
  "updatedAt": "2019-09-23T15:41:12.724Z",
  "devdoc": {
    "methods": {}
  },
  "userdoc": {
    "methods": {},
    "notice": "The Election contract does this and that...\r"
  }
}